:020000040000FA
:060000000A128A110C280F
:10000800FE00030EF1000A08F2000A128A11B32E4C
:100018000A128A110F280A128A1149270A128A110C
:10002800B000AD01AE01AF0183010A128A111C288C
:1000380083120313A901A701AB01AC01A801AA010E
:100048003030A4002408831603138505303083124A
:100058000313A40024088505F030A400240883169F
:1000680003138705F03083120313A40024088705BF
:10007800831603138817051606177F308312031398
:10008800A40024088316031386057F308312031304
:10009800A40024088805FD30A4002408831603134F
:1000A8008605FD3083120313A40024088605FB305F
:1000B800A4002408831603138605FB308312031358
:1000C800A40024088605FE30A40024088316031320
:1000D8008905FE3083120313A400240889050A1237
:1000E8008A1188260A128A110A128A113B270A12D3
:1000F8008A1180300A128A11D6260A128A11BE285D
:100108000A128A11FD240A128A1183120313A40009
:100118002408AC0005083039083885000F302C0554
:10012800A4000708F03924048700A33083120313BE
:10013800A5005430A400A40B9F28A50B9F280000FD
:100148000A128A11FD240A128A1183120313A400C9
:100158002408AB000A30A4002408F3002C080A1273
:100168008A1116270A128A11831203132B07A50076
:100178002508AE00831203132E080319C428C528C6
:1001880084280A128A1142270A128A110A128A112D
:100198002B270A128A11831203130508F039013834
:1001A80085000F302905A4000708F03924048700CA
:1001B800A53083120313A400A40BE028E3288312BC
:1001C80003130508F039023885000F302705A4000D
:1001D8000708F03924048700A53083120313A4000C
:1001E800A40BF428F728831203130508F039043800
:1001F80085000F302B05A4000708F0392404870078
:10020800A53083120313A400A40B08290B29831219
:1002180003130508F039083885000F302C05A400B1
:100228000708F03924048700A53083120313A400BB
:10023800A40B1C291F29831203132D08031D25292C
:100248002629332B061B29292A29FA2A051A2D299A
:100258002E29FA2AAA01122A2D03031D3429352929
:10026800B029A901A701AE01AB01AC0105083039DD
:10027800013885000708F03987000A128A113B27E0
:100288000A128A1101300A128A11D6260A128A1114
:10029800023083120313A6004530A500A930A4003C
:1002A800A40B5429A50B5429A60B54290A128A1108
:1002B8003B270A128A11F50101300A128A115126C8
:1002C8000A128A1170300A128A11D6260A128A1165
:1002D800A7290A128A11FD240A128A11831203130C
:1002E800A4002408AC000508F039083885000F3050
:1002F8002C05A4000708F03924048700A3308312D2
:100308000313A5005430A400A40B8829A50B882941
:1003180000000A128A11FD240A128A11831203139B
:10032800A4002408AB000A30A4002408F3002C0819
:100338000A128A1116270A128A11831203132B072D
:10034800A5002508AE00831203132E080319AD2952
:10035800AE296D29AD01AA012A08031DB429B529C2
:10036800C4290A128A113B270A128A115E300A121E
:100378008A11D6260A128A1183120313AA01AA0A1D
:100388000508F039013885000F302905A400070851
:10039800F03924048700A53083120313A400A40BAA
:1003A800D329D629831203130508F03902388500AA
:1003B8000F302705A4000708F03924048700A5306A
:1003C80083120313A400A40BE729EA298312031359
:1003D8000508F039043885000F302B05A4000708FC
:1003E800F03924048700A53083120313A400A40B5A
:1003F800FB29FE29831203130508F0390838850004
:100408000F302C05A4000708F03924048700A53014
:1004180083120313A400A40B0F2A122A83120313B6
:10042800881F172A182A1D2A280803191C2A1D2A7A
:1004380030292A03031D212A222A302A0A128A1166
:100448003B270A128A113A300A128A11D6260A1252
:100458008A1183120313AA01861786140914A801A6
:10046800A80AB0012F0803193A2A3B2A9D2A3C30D2
:100478002F06031D402A412A442AA901A701CF2893
:100488000A30F3000030F4002E08A400A501240867
:10049800F5002508F6000A128A1157250A128A1152
:1004A800730883120313A6002608AB000A30F30072
:1004B8000030F4002E08A400A5012408F500250842
:1004C800F6000A128A1194240A128A1173088312F8
:1004D8000313A6002608AC000A30F3000030F4002D
:1004E8002F08A400A5012408F5002508F6000A1223
:1004F8008A1157250A128A11730883120313A6005A
:100508002608A9000A30F3000030F4002F08A400E0
:10051800A5012408F5002508F6000A128A1194247A
:100528000A128A11730883120313A6002608A7006B
:10053800CF282E080319A12AA22AD52A3C30A400C4
:100548002408AF000A30F3000030F4002E08A4009D
:10055800A5012408F5002508F6000A128A11572576
:100568000A128A11730883120313A6002608AB0027
:100578000A30F3000030F4002E08A400A501240876
:10058800F5002508F6000A128A1194240A128A1125
:10059800730883120313A6002608AC000130AE02CC
:1005A800CF28A9017F30A40024088605FD30A400C7
:1005B80024088605FE30A400240889050130A4001B
:1005C8002408B0002A03031DEA2AEB2A322B0A1258
:1005D8008A113B270A128A114C300A128A11D62630
:1005E8000A128A1183120313AA01CF287F30A400AC
:1005F80024088605FD30A40024088605FE30A400E2
:10060800240889050130A4002408B0002A08031929
:100618000E2B0F2B142B2803031D132B142BCF2861
:100628000A128A113B270A128A1116300A128A11F5
:10063800D6260A128A11F50101300A128A115126AA
:100648000A128A1128300A128A11D6260A128A1129
:1006580083120313AA01AA0AA801CF28CF282803C6
:10066800031D372B382B4B2B7F30A400240886051D
:10067800FD30A40024088605FE30A400240889055E
:100688000130A4002408B000A801AD01CF28A901B9
:10069800A701AE01AB01AC0105083039013885006E
:1006A8000708F03987000A128A113B270A128A11B3
:1006B80001300A128A11D6260A128A1102308312D0
:1006C8000313A6004530A500A930A400A40B6A2B8B
:1006D800A50B6A2BA60B6A2B0A128A113B270A1252
:1006E8008A11F50101300A128A1151260A128A115B
:1006F80070300A128A11D6260A128A11BD2B0A12E4
:100708008A11FD240A128A1183120313A4002408F3
:10071800AC0005083039083885000F302C05A400D6
:100728000708F03924048700A33083120313A500B7
:100738005430A400A40B9E2BA50B9E2B00000A127C
:100748008A11FD240A128A1183120313A4002408B3
:10075800AB000A30A4002408F3002C080A128A11FE
:1007680016270A128A11831203132B07A5002508DE
:10077800AE00831203132E080319C32BC42B832B3B
:0C078800AD01AA01CF280A128A110C282A
:1008000004308A000408840A820700347234653494
:100810006D346F3476346534643420347434693420
:100820006D3465342034733465347434743469340D
:100830006E346734003444346F346F34723420348F
:10084000693473346E3427347434203463346C3434
:100850006F3473346534643400346F34723420344C
:100860006E346F347434203466346F3475346E34BF
:100870006434203466346F346F3464340034683444
:1008800065346134743465347234203469347334BB
:10089000203477346F3472346B3469346E34673497
:1008A0000034683465346134743469346E346734C8
:1008B0002034693473342034663469346E346934D6
:1008C00073346834003470347534733468342034CD
:1008D0007334743461347234743420346234753453
:1008E000743474346F346E34003445346E3474347C
:1008F0006534723420346E34653477342034743483
:1009000069346D3465342034003445346E347434C5
:100910006534723420346E34653477342034743462
:1009200069346D346534003483120313A101F41F5C
:100930009A2C9B2CA22CF309F409F30A0319F40A4C
:10094000A101A10AF61FA52CA62CAF2CF509F609CA
:10095000F50A0319F60A0130F7007708A106A2018B
:10096000A301730874040319B62CB72CEE2CA00154
:10097000A00AC52C01300310F30DF40DFF3E031D3A
:10098000BB2C0130F7007708A007F41FC82CC92C36
:10099000BA2C01300310A20DA30DFF3E031DCA2C7B
:1009A00074087602031DD62C73087502031CD92C1B
:1009B000DA2CE12C7308F5027408031CF603F60226
:1009C000221401300310F40CF30CFF3E031DE22C43
:1009D0000130A002031DED2CEE2CC92C21080319B7
:1009E000F22CF32CF82CA209A309A20A0319A30ADA
:1009F0002308F4002208F3000800FA011030F70081
:100A00007A0A042D0310F70DFF3E031D022D77080F
:100A1000FF3AF8008316031308087F38780588002A
:100A20001030F7007A0A162D0310F70DFF3E031D54
:100A3000142D831203130808803977048800F90104
:100A40000130F700790A262D0310F70DFF3E031D34
:100A5000242D7708080503192E2D2F2D412D033045
:100A6000F7007708F30079080A128A1116270A128C
:100A70008A117A07013E0A128A11F8260A128A118F
:100A8000562D0130F7007708F90704307902031C6E
:100A90004A2D4B2D202D0130F7007708FA0703303F
:100AA0007A02031C542D552DFE2CFD2C0800F90153
:100AB000F61F5B2D5C2D632DF509F609F50A031968
:100AC000F60AF901F90AF41F662D672D6C2DF3095A
:100AD000F409F30A0319F40A730874040319712D55
:100AE000722DA12DF801F80A802D01300310F30DAD
:100AF000F40DFF3E031D762D0130F7007708F8074F
:100B0000F41F832D842D752D74087602031D8A2D04
:100B100073087502031C8D2D8E2D942D7308F5021C
:100B20007408031CF603F60201300310F40CF30CF6
:100B3000FF3E031D952D0130F802031DA02DA12DB0
:100B4000842D79080319A52DA62DAB2DF509F609DD
:100B5000F50A0319F60A7608F4007508F300080090
:100B6000F400F730F3007308831203138605EF30A7
:100B7000F300730886055330F300F30BBD2D831289
:100B8000031386165330F300F30BC42DF0307405B5
:100B9000F3008312031307080F39730487005330DF
:100BA000F300F30BD12DDF30F3007308831203132E
:100BB00086055330F300F30BDB2D831203138616E7
:100BC0005330F300F30BE22D74080F39F3000430B7
:100BD0000310F30DFF3E031DE82D831203130708D6
:100BE0000F39730487005330F300F30BF52DDF301A
:100BF000F30073088312031386055330F300F30BDD
:100C0000FF2D0800F400831203138615EF30F30064
:100C1000730886055330F300F30B0C2E8312031375
:100C200086165330F300F30B132EF0307405F300E7
:100C30008312031307080F39730487005330F3003E
:100C4000F30B202EDF30F3007308831203138605A5
:100C50005330F300F30B2A2E8312031386165330FE
:100C6000F300F30B312E74080F39F3000430031036
:100C7000F30DFF3E031D372E8312031307080F39B0
:100C8000730487005330F300F30B442EDF30F3007E
:100C900073088312031386055330F300F30B4E2EB3
:100CA0000800F8006A2E7508F6007608F900802E14
:100CB0007508403EF6007608F900802E7508103E53
:100CC000F6007608F900802E7508503EF60076088A
:100CD000F900802E7808F600F7017708003A03192A
:100CE000722E802E7608003A0319532E013A03190A
:100CF000582E033A03195E2E013A0319642E802EF2
:100D0000790880380A128A11B0250A128A1108005F
:100D1000F730F5007508831603138605EF30F500EC
:100D200075088605DF30F500750886050F30F5007B
:100D30007508870502300A128A11B0250A128A1135
:100D400028300A128A11B0250A128A110C300A12B0
:100D50008A11B0250A128A1101300A128A11B025AF
:100D60000A128A1108008B1CB62EB72EBE2E013037
:100D7000F000700883120313AD008B10831203136D
:100D80000C1CC32EC42ECF2E0B308F00DC308E00F7
:100D90003018CB2ECC2ECE2E0130AF020C107208A4
:100DA0008A00710E8300FE0E7E0E0900F700F60128
:100DB000EA2E7608770784000A128A1100240A12A4
:100DC0008A110A128A1102260A128A110130F500CC
:100DD0007508F6077608770784000A128A1100243E
:100DE0000A128A11003A031DF62EF72ED92E08009A
:100DF000F500022F2A30152F0030152F2330152F24
:100E00007508152F7508F300F4017408003A0319EA
:100E10000A2F002F73080A3A0319FA2E013A031910
:100E2000FC2E073A0319FE2E002F0800F600F501EC
:100E3000761C1B2F1C2F202F7308F4007408F50755
:100E40000310F30D0310F60C7608031D282F292F2D
:100E5000182F75080800831603130C140B178B1733
:100E60000B30831203138F00DC308E0090101012B1
:100E700090161014080001300A128A11B0250A12C7
:100E80008A1108008316031306148B170B1601171B
:040E90000800013421
:02400E00793FF8
:00000001FF
